{
  "contractName": "FavoriteNumber",
  "abi": [
    {
      "anonymous": false,
      "inputs": [
        {
          "indexed": false,
          "internalType": "address",
          "name": "_owner",
          "type": "address"
        },
        {
          "indexed": false,
          "internalType": "uint16",
          "name": "_number",
          "type": "uint16"
        }
      ],
      "name": "FavoriteNumberGot",
      "type": "event"
    },
    {
      "anonymous": false,
      "inputs": [
        {
          "indexed": false,
          "internalType": "address",
          "name": "_address",
          "type": "address"
        },
        {
          "indexed": false,
          "internalType": "uint16",
          "name": "_number",
          "type": "uint16"
        }
      ],
      "name": "FavoriteNumberSet",
      "type": "event"
    },
    {
      "anonymous": false,
      "inputs": [
        {
          "indexed": false,
          "internalType": "uint256",
          "name": "_number",
          "type": "uint256"
        }
      ],
      "name": "NumberFavoriteNumbers",
      "type": "event"
    },
    {
      "inputs": [
        {
          "internalType": "uint16",
          "name": "_number",
          "type": "uint16"
        }
      ],
      "name": "setFavoriteNumber",
      "outputs": [],
      "stateMutability": "nonpayable",
      "type": "function"
    },
    {
      "inputs": [
        {
          "internalType": "address",
          "name": "_owner",
          "type": "address"
        }
      ],
      "name": "getFavoriteNumber",
      "outputs": [
        {
          "internalType": "uint16",
          "name": "",
          "type": "uint16"
        }
      ],
      "stateMutability": "nonpayable",
      "type": "function"
    },
    {
      "inputs": [],
      "name": "howManyFavoriteNumbers",
      "outputs": [
        {
          "internalType": "uint256",
          "name": "",
          "type": "uint256"
        }
      ],
      "stateMutability": "nonpayable",
      "type": "function"
    }
  ],
  "bytecode": "0x608060405234801561001057600080fd5b50610593806100206000396000f3fe608060405234801561001057600080fd5b50600436106100415760003560e01c8063077b153c14610046578063485ede2b14610064578063eb1362ac14610080575b600080fd5b61004e6100b0565b60405161005b91906103f2565b60405180910390f35b61007e60048036038101906100799190610315565b6100f2565b005b61009a600480360381019061009591906102ec565b6101e7565b6040516100a791906103d7565b60405180910390f35b60007eb2713c80622063d06e83f49d97f6616f341554fa37fc8de6d8222c8d10b0636001546040516100e291906103f2565b60405180910390a1600154905090565b61ffff8161ffff161061013a576040517f08c379a0000000000000000000000000000000000000000000000000000000008152600401610131906103b7565b60405180910390fd5b806000803373ffffffffffffffffffffffffffffffffffffffff1673ffffffffffffffffffffffffffffffffffffffff16815260200190815260200160002060006101000a81548161ffff021916908361ffff160217905550600160008154809291906101a690610468565b91905055507f567f05f73f68a71f1af376f09c41d76ba0e9377e9b72946c6398ab0fe041b33a33826040516101dc92919061038e565b60405180910390a150565b60007fe3f638f5869d4c440e28a82c95aebaf6ce6156504927e74559bc18567735a043826000808573ffffffffffffffffffffffffffffffffffffffff1673ffffffffffffffffffffffffffffffffffffffff16815260200190815260200160002060009054906101000a900461ffff1660405161026692919061038e565b60405180910390a16000808373ffffffffffffffffffffffffffffffffffffffff1673ffffffffffffffffffffffffffffffffffffffff16815260200190815260200160002060009054906101000a900461ffff169050919050565b6000813590506102d18161052f565b92915050565b6000813590506102e681610546565b92915050565b6000602082840312156102fe57600080fd5b600061030c848285016102c2565b91505092915050565b60006020828403121561032757600080fd5b6000610335848285016102d7565b91505092915050565b6103478161041e565b82525050565b600061035a603c8361040d565b9150610365826104e0565b604082019050919050565b61037981610430565b82525050565b6103888161045e565b82525050565b60006040820190506103a3600083018561033e565b6103b06020830184610370565b9392505050565b600060208201905081810360008301526103d08161034d565b9050919050565b60006020820190506103ec6000830184610370565b92915050565b6000602082019050610407600083018461037f565b92915050565b600082825260208201905092915050565b60006104298261043e565b9050919050565b600061ffff82169050919050565b600073ffffffffffffffffffffffffffffffffffffffff82169050919050565b6000819050919050565b60006104738261045e565b91507fffffffffffffffffffffffffffffffffffffffffffffffffffffffffffffffff8214156104a6576104a56104b1565b5b600182019050919050565b7f4e487b7100000000000000000000000000000000000000000000000000000000600052601160045260246000fd5b7f596f7572206661766f72697465206e756d62657220697320746f6f206269672c60008201527f2063686f6f73652061206e756d62657220756e64657220363535333500000000602082015250565b6105388161041e565b811461054357600080fd5b50565b61054f81610430565b811461055a57600080fd5b5056fea26469706673582212203894305c248cc23e830b4ca86106292fd414d0c676a1707647e1bcc832b27f0764736f6c63430008010033",
  "immutableReferences": {},
  "source": "pragma solidity ^0.8.1;\r\n\r\ncontract FavoriteNumber {\r\n    \r\n    mapping(address => uint16) favoriteNumbers;\r\n    uint index;\r\n    \r\n    event FavoriteNumberSet(address _address, uint16 _number);\r\n    event FavoriteNumberGot(address _owner, uint16 _number);\r\n    event NumberFavoriteNumbers(uint _number);\r\n    \r\n    function setFavoriteNumber(uint16 _number) public {\r\n        require(_number < 65535, \"Your favorite number is too big, choose a number under 65535\");\r\n        favoriteNumbers[msg.sender] = _number;\r\n        index++;\r\n        emit FavoriteNumberSet(msg.sender, _number);\r\n    }\r\n    \r\n    function getFavoriteNumber(address _owner) public returns(uint16) {\r\n        emit FavoriteNumberGot(_owner, favoriteNumbers[_owner]);\r\n        return favoriteNumbers[_owner];\r\n    }\r\n    \r\n    function howManyFavoriteNumbers() public returns(uint) {\r\n        emit NumberFavoriteNumbers(index);\r\n        return index;\r\n    }\r\n    \r\n}",
  "sourcePath": "C:/Users/bbruc/Desktop/Projects/Personal Projects/BlockChain/FavoriteNumber/contracts/FavoriteNumber.sol",
  "compiler": {
    "name": "solc",
    "version": "0.8.1+commit.df193b15.Emscripten.clang"
  },
  "schemaVersion": "3.4.1",
  "updatedAt": "2021-05-27T14:12:48.365Z",
  "networkType": "ethereum",
  "devdoc": {
    "kind": "dev",
    "methods": {},
    "version": 1
  },
  "userdoc": {
    "kind": "user",
    "methods": {},
    "version": 1
  }
}